:020000040800F2
:10000000200B0020350200085F1700087D13000850
:100010005D1700082B040008051A00080000000006
:10002000000000000000000000000000631700084E
:100030002D04000800000000611700086517000883
:100040004F0200084F0200084F0200084F0200084C
:100050004F0200084F0200084F0200084F0200083C
:10006000310400084F0200084F0200084F02000848
:100070004F0200084F0200084F0200084F0200081C
:100080004F0200084F0200084F0200080000000065
:100090000000000000000000000000004F02000807
:1000A0004F0200084F0200084F0200084F020008EC
:1000B0004F0200084F0200084F0200084F020008DC
:1000C0004F0200084F0200084F0200084F020008CC
:1000D0004F0200084F0200084F0200080000000015
:1000E0004F0200084F0200084F0200080000000005
:1000F0000000000000000000000000004F020008A7
:10010000000000004F0200084F0200084F020008E4
:1001100000000000000000000000000000000000DF
:100120004F0200084F0200084F0200084F0200086B
:100130004F02000800000000000000000000000066
:100140000000000000000000000000004F02000856
:100150004F0200084F0200084F0200084F0200083B
:100160004F0200084F0200080000000000000000DD
:10017000000000000000000000000000000000007F
:10018000000000004F020008000000000000000016
:100190004F02000800F002F800F03CF80AA090E8D6
:1001A000000C82448344AAF10107DA4501D100F032
:1001B00031F8AFF2090EBAE80F0013F0010F18BFC3
:1001C000FB1A43F0010318473C3900005C3900007A
:1001D000103A24BF78C878C1FAD8520724BF30C873
:1001E00030C144BF04680C60704700000023002445
:1001F00000250026103A28BF78C1FBD8520728BF37
:1002000030C148BF0B6070471FB502F0C3FA1FBD75
:1002100010B510BD00F0D4F81146FFF7F5FF01F05E
:1002200003FC00F0F2F803B4FFF7F2FF03BC00F0A8
:10023000F5F800000948804709480047FEE7FEE757
:10024000FEE7FEE7FEE7FEE7FEE7FEE7FEE7FEE786
:1002500004480549054A064B70470000FD17000891
:100260009501000820050020200B00202007002019
:100270002007002053EA020C00F069802DE9F04BC2
:100280004FF00006002B1FBFB3FA83F503FA05F405
:1002900024FA05F65E4012BF1643B2FA82F502FA5E
:1002A00005F4C5F120051EBF22FA05FC44EA0C0442
:1002B000203556EA044C4FEA144418BF641C4FF032
:1002C00000084FF00009904271EB030C39D300296C
:1002D00019BFB1FA81F701FA07F6B0FA80F700FA10
:1002E00007F6C7F120071EBF20FA07FC46EA0C06F6
:1002F0002037B6FBF4FCA7EB0507103F07F01F0BF8
:10030000CBF120060CFA0BFB2CFA06F644BFB346E1
:100310000026202FA4BF5E464FF0000B5BEA060CC0
:1003200008BF4FF0010B19EB0B09ABFB027C48EB4C
:100330000608C01B06FB02CC0BFB03CC71EB0C01C7
:10034000C1E70B46024641464846BDE8F08B13B56F
:100350004FF000004FF00001AFF30080BDE81C40FB
:1003600070474FF0000200B5134694469646203978
:1003700022BFA0E80C50A0E80C50B1F12001BFF45E
:10038000F7AF090728BFA0E80C5048BF0CC05DF8C4
:1003900004EB890028BF40F8042B08BF704748BF12
:1003A00020F8022B11F0804F18BF00F8012B704786
:1003B000704770477047000000487047C004002035
:1003C0007546FFF7F9FFAE4605006946534620F033
:1003D0000700854618B020B5FFF73AFFBDE820407A
:1003E0004FF000064FF000074FF000084FF0000BF1
:1003F00021F00701AC46ACE8C009ACE8C009ACE8A4
:10040000C009ACE8C0098D46704710B50446AFF38B
:1004100000802046BDE81040FFF705BF01491820C5
:10042000ABBEFEE7260002007047FEE77047000003
:1004300010B5042000F02CF84FF40051084800F0EB
:1004400028F90848017849B100210170002043F6DD
:100450009821401C80B28842FBD310BD0121F4E7F3
:10046000000802401000002070B5044600F01EF99C
:100470000546601C02D004480078044400F016F9D8
:10048000401BA042FAD370BD14000020704700004A
:10049000044910B50A68024202D00860FFF7F6FF6F
:1004A00010BD0000143C01402DE9F84FDFF8B8A161
:1004B000002201240AF1040B03254FF00F090BF170
:1004C000040E00BF0B6804FA02F63340B34273D146
:1004D0000F7907F00307012F01D0022F16D187688B
:1004E0004FEA420805FA08FC27EA0C07D1F80CC0CD
:1004F0000CFA08FC4CEA070CC0F808C04768B74380
:100500000E79C6F3001696403E4346600E79F643D8
:10051000B6070DD0C768560005FA06FC27EA0C0797
:10052000D1F808C00CFA06FC4CEA070CC0F80CC065
:100530000E7906F00306022E10D1D60800EB8608CD
:10054000D8F8206057074FEAD76C09FA0CF7BE437A
:100550000F6907FA0CF73743C8F8207006684FEAAE
:10056000420C05FA0CF7BE430F7907F0030707FAB0
:100570000CF7374307604E6816F4403F6DD03B4E92
:10058000376847F480473760366822F0030706F47F
:1005900080460096364E07EB060CDCF80868970795
:1005A0003F0F09FA07F826EA0806DFF8C880404539
:1005B00003D14FF000081EE04FE0DFF8BC8040455B
:1005C00002D14FF0010816E0DFF8B080404502D1BB
:1005D0004FF002080FE0DFF8A880404502D14FF04D
:1005E000030808E0DFF89C80404502D14FF0040882
:1005F00001E04FF0070808FA07F848EA0608CCF8C7
:100600000888DAF800605746D1F804C09E435FEAD4
:10061000CC3C00D51E433E60DBF800605F46D1F85D
:1006200004C09E435FEA8C3C00D51E433E60DEF86A
:1006300000607746D1F804C09E435FEACC2C00D519
:100640001E433E60084F0C373E68D1F804C09E43FD
:100650005FEA8C2C00D51E433E60521C102AFFF42A
:1006600031AFBDE8F88F0000003C01404438024043
:100670000030014000000240000402400008024037
:10068000000C0240001002400069084000D0012028
:100690007047426921EA02030A4043EA024181614C
:1006A00070470AB1816170470904FBE7014880681F
:1006B000704700001400002070B5040025D094F8A5
:1006C0003D00002520B984F83C50204600F050F948
:1006D000242084F83D002068016821F001010160B8
:1006E0002068016841F4004101602068016821F43C
:1006F0000041016000F0A4FA4D4A6168914201D8BE
:100700004C4900E04C49884201D2012070BD4B4960
:100710002368B0FBF1F15E6826F03F060E435E6091
:100720006368934206D94FF4967359434FF47A7332
:10073000B1FBF3F12368491C1E6A26F03F063143E2
:1007400019626168914210D84900401EB0FBF1F275
:10075000521CC2F30B02042A01D2042022E0B0FB97
:10076000F1F0401CC0F30B001CE0A268F2B301EBF7
:10077000C10303EB0116431EB3FBF6F35B1C43F40A
:1007800080431B0549D092B301EBC10202EB01117A
:10079000401EB0FBF1F0401CC0F30B0040F4804061
:1007A00040F400402168CA694CF6FF739A43104335
:1007B000C861D4E9071001432068026822F0C00232
:1007C00011430160D4E9030101432068826848F2C3
:1007D000FF339A4311438160D4E90501084321683E
:1007E000CA6822F0FF021043C86001E00EE016E084
:1007F0002068016841F0010101602564202084F82F
:100800003D00256384F83E50002070BD01EB410699
:10081000431EB3FBF6F35B1CB3E70120C2E701EB19
:100820004101401EB0FBF1F0401CC0F30B00B7E7E4
:10083000A086010080841E0000093D0040420F0098
:100840002DE9FF4F83B09A46DDE9119793460446A0
:10085000DDF84080FFF72AFF054694F83D00202888
:100860007FD11923012240492046009500F018FE4F
:10087000002876D194F83C00012872D0012084F839
:100880003C0020680168C90703D1016841F00101FB
:1008900001602068016821F400610160212084F872
:1008A0003D00402084F83E0000262664C4F82480E1
:1008B000A4F82A90608D20852C48E062CDE900756F
:1008C00053465A462046049900F070FD70B930E056
:1008D0002A463946204600F062FE58B1206C0428B2
:1008E00004D12068016841F400710160012007B063
:1008F000BDE8F08F606A216800780861606A401C7A
:100900006062218D491E89B22185628D521E6285E9
:1009100022685369DB435B070BD469B1007810612F
:10092000606A401C6062208D401E2085608D401EE4
:100930006085208D0028CBD12A463946204600F01C
:1009400089FD0028CAD154F83D0B016841F40071BB
:100950000160202004F81E09E67766770020C6E7CC
:10096000FFE70220C3E70000020010000000FFFFC5
:1009700010B586B0044614216846FFF7F2FC13490F
:100980002068884220D112480021026842F0020209
:100990000260006800F002000590C0200090122064
:1009A000CDE9010103200390042004906946094821
:1009B000FFF77AFD06481030016841F4001101602C
:1009C000006800F40010059006B010BD005400400F
:1009D0003038024000040240024881680278114425
:1009E00081607047140000200B4810B5016841F485
:1009F00000710160016841F480610160016841F4A7
:100A000080710160032000F06FF80F2000F006F8FD
:100A100000F024F8002010BD003C024070B50D4DE0
:100A200004464FF47A712878B1FBF0F00A4909685E
:100A3000B1FBF0F000F0FCFA48B9102C07D200220C
:100A40002146501E00F030F800206C6070BD01207F
:100A500070BD000014000020200000200A4808B5E6
:100A6000016841F480410160006800F4804000901A
:100A70000548001F016841F080510160006800F0E6
:100A80008050009008BD000044380240002809DB77
:100A900000F01F02012191404009800000F1E02098
:100AA000C0F8001170470000F0B40E4B1B680C46F4
:100AB000C3F30223C3F10705042D00D90425191D32
:100AC000072901D2002300E0DB1E012606FA05F10A
:100AD000491E214099409E40761E16403143F0BC8D
:100AE00000F091BF0CED00E0064900F00702086835
:100AF0004FF6FF03184040EA0220034A1043086003
:100B0000704700000CED00E00000FA052DE9F04709
:100B10000E46050065D0DFF81481D8F80000F7B262
:100B200000F00700B04207D288F80070D8F8000043
:100B300000F00700B04254D128683D4C810712D51F
:100B4000400703D5206840F4E05020602878000773
:100B500003D5206840F4604020602068A96820F038
:100B6000F000084320602878C0072DD0304968681D
:100B70000839012812D0022813D0032811D009689F
:100B8000890700292DDA216821F003010143216042
:100B9000FFF78CFD814641F2883A0EE0096889032F
:100BA000EFE709688901ECE7FFF780FDA0EB090199
:100BB000514502D90320BDE8F0872068696800F03C
:100BC0000C00B0EB810FEFD1D8F80010404601F0D7
:100BD0000701B14207D90770006800F00700B04272
:100BE00001D00120E7E72878400705D52068E968AB
:100BF00020F4E050084320602878000706D52068DC
:100C0000296920F4604040EAC100206000F028F823
:100C10002168084AC1F30311515CC84006490860C5
:100C200006480068FFF7FAFE0020C4E7003C0240D7
:100C300008380240EA3A000820000020180000208E
:100C40000448054900680968044AC1F38221515CDF
:100C5000C84070472000002008380240FA3A0008D7
:100C6000154810B5006810F00C02144813D0144950
:100C7000042A0FD0082A0ED10F4C241F22682368A3
:100C800002F03F025B0207D52068C0F38810A0FB8A
:100C9000010106E0084610BD2168C1F38811A1FBDF
:100CA00000010023FFF7E6FA2168C1F30141491C66
:100CB0004900B0FBF1F010BD083802400024F400F8
:100CC00040787D012DE9F84F04006ED02078DFF8E0
:100CD0004C93C007A9F104054AD009F1040001684A
:100CE000C1F38101012908D00068C0F38100022806
:100CF0000AD1D9F80000400206D52868800337D50C
:100D000060680028E1D033E06068B0F5803F10D023
:100D1000B0F5A02F286810D020F480302860286813
:100D200020F4802028606068A8B1FFF7BFFC064669
:100D30000DE0286840F48030F4E740F4802028601B
:100D4000F7E700BFFFF7B2FC801B642873D8286860
:100D50008003F7D50CE0FFF7A9FC064605E000BFCD
:100D6000FFF7A4FC801B6428F0D828688003F7D420
:100D70002078DFF8AC8280074FF0000A3ED5A74804
:100D8000001D016811F00C0F08D00068C0F381004D
:100D900002280BD1D9F80000400207D42868800748
:100DA00016D5E068012800D112E033E1E068B8B15F
:100DB0000120C8F80000FFF779FC064605E000BFF7
:100DC000FFF774FC801B0228C0D828688007F7D57D
:100DD0002868216920F0F80040EAC10028600DE091
:100DE000C8F800A0FFF762FC064604E0FFF75EFCCF
:100DF000801B02281FD828688007F7D420780007B6
:100E000022D5864F87486169703771B10121016031
:100E1000FFF74CFC064604E0FFF748FC801B022865
:100E200009D838688007F7D50EE0C0F800A0FFF7B2
:100E30003DFC064605E082E0FFF738FC801B0228F7
:100E40007DD838688007F7D42078400768D5DFF868
:100E5000CCB100270BF13C0BDBF80000C0000BD439
:100E6000DBF8001041F08051CBF80010DBF80000F7
:100E7000012700F0805000906B4E3068C00510D400
:100E8000306840F480703060FFF710FC009005E09F
:100E9000FFF70CFC0099401A022850D83068C005B2
:100EA000F6D55E4EA0686C3601280FD00528306854
:100EB00010D020F001003060306820F00400306075
:100EC000A068B8B1FFF7F2FB00900FE0306840F087
:100ED0000100F4E740F004003060F7E7FFF7E6FBBD
:100EE0000099411A41F28830814266D83068800703
:100EF000F4D50EE0FFF7DAFB009007E0FFF7D6FB32
:100F00000099411A41F28830814256D830688007F2
:100F1000F4D42FB1DBF8001021F08051CBF8001091
:100F2000A069C8B33D49091D0968C1F381010229BF
:100F30004AD00228504607D0C8F8600000E03CE0E4
:100F4000FFF7B4FB04463BE04746C8F86000FFF7F4
:100F5000ADFB064605E000BFFFF7A8FB801B02289B
:100F60002BD828688001F7D4D4E907010843A16A87
:100F70002E4A490802EB0141626A41EA82110843A4
:100F800094F82C1040EA0161C9F80010012038667D
:100F9000FFF78CFB044606E03EE000BFFFF786FB50
:100FA000001B022809D828688001F7D534E000BF6B
:100FB000FFF77CFB001B022802D90320BDE8F88F55
:100FC00028688001F4D427E00128F7D0D9F8000080
:100FD000E26900F4800191421CD1226A00F03F01D5
:100FE000914217D147F6C071626A0140B1EB821F8E
:100FF00010D1A26A4FF0FF3300F4403103EB5202EC
:10100000B1EB024F06D194F82C1000F07060B0EBF9
:10101000016F01D00120D1E70020CFE70438024062
:1010200000004742800E4742007000400000FFFF72
:1010300010B5401EB0F1807F01D3012010BD4FF0EC
:10104000E02460610F21601700F0DDFC0020A0614A
:1010500007202061002010BD10B590F83C20012A27
:1010600022D0012280F83C20CA688C6822F44072A9
:1010700022434C6822F4806222430C6822F400620E
:1010800022430C6922F4805222434C6922F400521C
:101090002243C969002322F480420A4301684A645A
:1010A00080F83C30002010BD022010BD70B590F8D3
:1010B0003C20012A2CD0012480F83C40022280F8F8
:1010C0003D2003685A689D6822F070060A68324322
:1010D0005A60104B02689A420ED0B2F1804F0BD08A
:1010E0000D4B9A4208D00D4B9A4205D00C4B9A42B8
:1010F00002D00C4B9A4204D1496825F08003194371
:10110000916080F83D40002180F83C10084670BD99
:10111000022070BD000001400004004000080040B3
:10112000000C00400040014010B586B00446142178
:101130006846FFF716F90E492068884216D10D4817
:101140000021026842F001020260006800F0010024
:1011500005904FF4807000900220CDE9010101203C
:10116000CDE9031069460448FFF79EF906B010BDAB
:1011700000000140303802400000024070B50446D3
:1011800090F83C0000260D4601280FD0012084F87D
:101190003C006AB1042A1DD0082A2FD00C2A3FD067
:1011A0000126002084F83C00304670BD022070BD4E
:1011B000206800F085FB2068816941F008018161A9
:1011C0002068816921F004018161206881692A69B0
:1011D000114311E0206800F09BFB2068816941F415
:1011E000006181612068816921F4806181612068EA
:1011F00081692A6941EA02218161D2E7206800F011
:10120000B3FB2068C16941F00801C1612068C16970
:1012100021F00401C1612068C1692A69114311E00C
:10122000206800F0CDFB2068C16941F40061C16114
:101230002068C16921F48061C1612068C1692A699F
:1012400041EA0221C161ACE710B5040003D094F873
:101250003D0010B107E0012010BD002084F83C00E3
:10126000204600F01FF8022084F83D00211D206870
:1012700000F0CCFA012084F8460084F83E0084F89F
:101280003F0084F8400084F8410084F8420084F86C
:10129000430084F8440084F8450084F83D000020B1
:1012A00010BD000008B500680649884208D106480C
:1012B000016841F001010160006800F00100009048
:1012C00008BD0000000001404438024010B504464B
:1012D000022249B104290ED0082913D094F8410004
:1012E000012816D0012010BD94F83E000128F9D144
:1012F00084F83E200FE094F83F000128F2D184F8F2
:101300003F2008E094F840000128EBD184F8402009
:1013100001E084F841200122206800F0C3FA12495C
:101320002068884203D1426C42F400424264206843
:1013300088420ED0B0F1804F0BD00C49884208D0C3
:101340000B49884205D00B49884202D00A4988429D
:1013500004D1816801F00701062903D0016841F03A
:1013600001010160002010BD0000014000040040A8
:1013700000080040000C004000400140FEE701680A
:101380004A69D24352050FD46FF480624A6100214A
:1013900040F8301F202242738173026942F0040238
:1013A0000261017301207047002070472DE9F84366
:1013B000044600680D46DDE9089701689846164620
:1013C00041F4807101604B4600224FF0011120462C
:1013D000009700F065F848B120680068C00502D5A4
:1013E0004FF4007020640320BDE8F883216805F005
:1013F000FE0008613B464A461549204600F084F845
:1014000088B920684169806900903A46494620467B
:1014100000F0C5F848B1206C042804D120680168A8
:1014200041F4007101600120DEE7F5B2B8F1010F6F
:1014300009D02168300A08613A464946204600F042
:10144000AEF80028E7D1206805610020CCE7000055
:101450000200010070B516460D4604460DE0204618
:10146000FFF78DFF08B1012070BD681C05D0FFF7A4
:101470001DF9801BA84207D835B120684069C043D8
:101480004007ECD4002070BD002044F8300F20212C
:101490006173A073216941F0200121612073E2E7AB
:1014A0002DE9F0471E4690460D460446C1F3074716
:1014B000DDF8209008E0701C06D0FFF7F7F8A0EBED
:1014C0000900B0420FD876B12068012F18D080698A
:1014D00025EA00000004000C14D000214145EAD0A8
:1014E0000020BDE8F087002044F8300F2021617310
:1014F000A073216941F02001216120730120F0E7F0
:101500004069E5E70121E9E72DE9F0479A46914670
:101510000E46044600254FF02008C1F3074725E09A
:1015200020684069C043400514D42068016841F434
:101530000071016021686FF480604861256384F860
:101540003D8084F83E50206C40F00400206484F814
:101550003C501FE0B9F1FF3F08D0FFF7A7F8A0EB20
:101560000A0149450CD8B9F1000F09D02068012FB4
:1015700013D0806926EA00000004000C0BD0CFE7EE
:1015800044F8305F84F80D80A573206940F0200096
:10159000206125730120BDE8F0874069EAE770B556
:1015A00016460D4604460DE02046FFF7E8FE08B15A
:1015B000012070BD681C05D0FFF778F8801BA84299
:1015C00007D835B120684069C0430006ECD400203C
:1015D00070BD002044F8300F20216173A073216991
:1015E00041F0200121612073E2E7000070B586B070
:1015F00014216846FEF7B5FE2B480024016841F02F
:1016000004010160016801F004010591016841F0E5
:1016100080010160016801F080010591016841F0DD
:1016200001010160016801F001010591016841F0CB
:101630000201016000681D4E00F002004FF40055E9
:101640000590002229463046FFF72BF8012000952F
:10165000CDE90104694630460394FEF725FF0425D1
:101660004FF488100095CDE90104114E69463046CB
:10167000FEF71AFF0820CDE90004694630460294BF
:10168000FEF712FFCDE9005469460A480294FEF7BE
:101690000BFF002211460820FFF706FA0820FFF78B
:1016A000F5F906B070BD0000303802400008024075
:1016B000000002400004024010B592B000240F94D4
:1016C0001C2108A81094FEF74CFE20216846FEF766
:1016D00048FE21481F4901605421C0E9011444F625
:1016E0002061C0E9031444618461FFF7ADFD08B1D6
:1016F00072B6FEE70F940FA917481094FFF7D6FCB7
:1017000008B172B6FEE7602008903220CDE90904E6
:101710000B940C940D94002208A90F480E94FFF727
:101720002DFD08B172B6FEE700944FF40050CDE9EC
:101730000440029401940394694607480794FFF714
:101740008BFC08B172B6FEE70348FFF7EDFC12B060
:1017500010BD00000000014078040020FEE7FEE715
:1017600070477047FFF738B930B593B030216846FD
:10177000FEF7F7FD14210CA8FEF7F3FD1D48002528
:10178000016841F080510160006800F080501190C4
:101790001948016821F4404141F4004101600068AA
:1017A000022400F4404011900120009000040190B8
:1017B0008001CDE9064019200890A820CDE9090450
:1017C00004200B906846FFF77DFA08B172B6FEE779
:1017D0000CA90F2081E831004FF48050CDE90F05AE
:1017E00002210CA8FFF792F9002801D072B6FEE79B
:1017F00013B030BD4038024000700040024801681C
:1018000041F470010160704788ED00E0F0B50268B6
:101810001D4B1E4C9F031E4D1E4E984207D0B842D2
:1018200005D0A04203D0A84201D0B04204D122F09A
:10183000700C4A6842EA0C02984210D0B8420ED0AE
:10184000A0420CD0A8420AD0B04208D0124CA0420C
:1018500005D0124CA04202D0114CA04203D122F478
:101860004074CA6822434C6922F08002224302601D
:101870008A68C2620A688262984201D1096901637A
:1018800001214161F0BD0000000001400004004062
:1018900000080040000C00400040014000440140AE
:1018A0000048014010B501F01F030121046A99406E
:1018B0008C430462016A9A401143016210BD00002A
:1018C00030B5026A22F001020262026A436884694A
:1018D00024F073050C682C4322F002058A682A4321
:1018E0000A4DA8420BD122F00805CA6823F44073C0
:1018F0002A434D6922F004021D438B692B43436048
:10190000846149684163026230BD0000000001400B
:1019100030B5026A22F010020262026A43688469EA
:101920000D6824F4E64444EA05248D6822F0200280
:1019300042EA05120B4DA8420ED1CD6822F080027A
:1019400042EA05124D6923F4406343EA85038D6939
:1019500022F0400243EA8503436084614968816361
:10196000026230BD0000014030B5026A22F480728C
:101970000262036A4268C46923F4007324F07305A9
:101980000C682C438D6843EA05230C4DA8420ED108
:10199000CD6823F4006343EA05234D6922F44052E5
:1019A00042EA05128D6923F4806342EA051242601F
:1019B000C4614968C163036230BD0000000001409A
:1019C00030B5026A22F480520262046A4268C36936
:1019D0000D6823F4E64343EA05238D6824F400549C
:1019E00044EA0534064DA84204D14D6922F48042F0
:1019F00042EA85124260C36149680164046230BDF5
:101A000000000140FEE70907090E002804DB00F191
:101A1000E02080F80014704700F00F0000F1E02093
:101A200080F8141D70470000FEF7DEFFFFF79CFEF4
:101A3000FFF7DCFD514850494FF4804201605049A6
:101A4000416000218160C0E9031241618161C1618F
:101A50000162FEF731FE08B172B6FEE7FFF72CFE19
:101A6000464800215430FFF731FC00F0E4F800F064
:101A70003FF9002000F02CF90221084600F0A6F9F9
:101A8000404C012340A0D4E9001200F03FFA00F0DE
:101A9000AFF940F6B830FEF7E7FC3F4D2878012853
:101AA0004FF0320035D0FEF7DFFC0221012000F0BC
:101AB0008DF9D4E90012012338A000F027FA0221A1
:101AC000084600F083F9D4E90012012336A000F0A3
:101AD0001DFA00F08DF908213748FEF7D5FD0128E1
:101AE000DCD1022100F072F9D4E90012012333A005
:101AF00000F00CFA0221084600F068F901232AA040
:101B0000D4E9001200F002FA00F072F900F09CF83B
:101B1000C4E7FEF7A9FC04212B48FEF7B5FD012818
:101B200010D00221012000F051F9D4E90012012364
:101B300022A000F0EBF90221084600F047F901234A
:101B400022A0DDE700F077F80221012000F03EF945
:101B5000D4E90012012311A000F0D8F902210846AF
:101B600000F034F9D4E90012012318A000F0CEF9F6
:101B700000F03EF992E700000054004024040020E9
:101B8000801A0600080000205769706572205072A4
:101B90006F6A65637400000010000020576970656B
:101BA000723A204F464600004D6F64653A204D4121
:101BB0004E55414C0000000000000240576970651E
:101BC000723A204F4E000000000402404D6F6465E1
:101BD0003A204155544F00002DE9F04104462DEDC7
:101BE000068B1E4615460F461046DDF8308000F085
:101BF000D2FB41EC180B701B00F0CDFB41EC190B34
:101C0000381B00F0C8FB41EC1A0BA8EB040000F0F5
:101C1000C2FB53EC1A2B00F037FA53EC192B00F0EF
:101C2000D1FB53EC182B00F087F9BDEC068BBDE817
:101C3000F04100F081BB10B5232000F01BF8BDE897
:101C400010400A20FEF710BC10B52324204600F0F7
:101C500011F80A20FEF708FC641C912CF6DD912493
:101C6000204600F007F80A20FEF7FEFB641E232C36
:101C7000F6DA10BD08B5FA2300903222B421002014
:101C8000FFF7AAFF01490968486308BD78040020EE
:101C900070B5802813D2402911D20B4B012401F0DA
:101CA00007051E79AC40094BC90800EBC1100EB105
:101CB00032B101E0012A03D0195CA143195470BD6F
:101CC000195C2143FAE700000000002024000020F6
:101CD00010B5064A00214FF4806328B1FF24545404
:101CE000491C9942F9D310BD0024F8E724000020D4
:101CF00010B56420FEF7B8FB002000F06DF820203E
:101D000000F0E2F8002000F0DFF8B02000F0DCF88E
:101D1000C82000F0D9F8002000F0D6F8102000F01C
:101D2000D3F8402000F0D0F8FF2000F045F8A120C3
:101D300000F0CAF8A62000F0C7F8A82000F0C4F808
:101D40003F2000F0C1F8A42000F0BEF8D32000F03E
:101D5000BBF8002000F0B8F8D52000F0B5F8F0206E
:101D600000F0B2F8D92000F0AFF8222000F0ACF873
:101D7000DA2000F0A9F8122000F0A6F8DB2000F02D
:101D8000A3F8202000F0A0F88D2000F09DF814208A
:101D900000F09AF8012000F01FF80020FFF798FFEC
:101DA00000F026F8034800210180418001214171A3
:101DB00010BD00000000002010B50446812000F096
:101DC00083F82046BDE8104000F07EB8014A10803C
:101DD0005180704700000020044910B1AF2001225B
:101DE00001E0AE2000228A7100F06EB800000020F1
:101DF00070B50C4D002400BF04F1B000C0B200F07B
:101E000063F8002000F060F8102000F05DF805EBAA
:101E1000C410802100F06AF8641CE4B2082CEBD3F3
:101E200070BD0000240000202DE9FF4F934600986C
:101E3000A0F1200ABAF15F0F0CD22248CEB202887C
:101E40003244802A06D881464088C1F307273844A7
:101E5000402803D9002004B0BDE8F08F002525E01C
:101E60001AFB07513BF8118000241CE008FA04F02B
:101E7000000409D599F8021099F80000294420447B
:101E8000C9B2C0B2039A0BE00398C0B15FF0000280
:101E900099F8021099F8000029442044C9B2C0B250
:101EA000FFF7F6FE641CA642E0D86D1CAF42D7D8FF
:101EB000B9F800103144A9F800100098CBE70122CE
:101EC000E6E700000000002001B584B001214FF0DA
:101ED000FF3204A88DE807000B4600227821024853
:101EE000FEF7AEFC05B000BD240400200EB54FF097
:101EF000FF3289B28DE80700012340227821024891
:101F0000FEF79EFC0EBD000024040020F0B51D4627
:101F10000E46174604460AE02B463A463146FFF77E
:101F200083FF2178884201D0C8B2F0BD641C2078BC
:101F30000028F1D1C0B2F0BD10B591EA030F48BF3F
:101F400083F0004300F14483841A71EB030C05D243
:101F5000121943EB0C03001B61EB0C01DFF824E1C9
:101F60004FEA1154A4EB135C1EEA430F18BF9EEA1C
:101F7000445F73D023EA0E03DCF1200E21EA045102
:101F800043F4801332D322FA0CFE10EB0E0023FA36
:101F90000CFE41EB0E01CCF1200E03FA0EFE10EB0D
:101FA0000E0051F10001B1F5801FCCF1200E32D2AC
:101FB00001EB045112FA0EF2BDE8104058BF704711
:101FC000401C38BF5FEA420218BF7047002814BFA8
:101FD00020F0010041F100014FEA410313F5001F19
:101FE00038BF7047A1F1C04100F0E4BA012A43EBC9
:101FF0000302ACF1200CDCF11F0E32BF4FF0000EDB
:1020000023FA0CF310EB030041EB0451B4EB115F26
:10201000D0D0A1EB045101F5801149085FEA3000EE
:1020200001EB04510ED350F1000038BF12FA0EFE3E
:1020300008D1BDE81040C9E7401C38BF5FEA420242
:10204000CAD1C3E7BDE810404FEA410313F5001FB2
:1020500038BF7047A1F1C04100F0ACBA9EEA445FBE
:1020600008D011EA5E0FBDE8104004BF01F0004146
:1020700000207047BDE8104070B500F04DFA00BF79
:1020800064FBBE3E0000E0FF2DE9C04130B4DFF844
:10209000A0C23CEA111418BF3CEA131400F0EC8013
:1020A00081EA03051CEA111444EAD57418BF1CEA3E
:1020B000131500F0C780A4EB05044FF0004545EA76
:1020C000C12145EAC32341EA505143EA525304F186
:1020D0007F74994204F500344FEAC0204FEAC222CF
:1020E00008BF904200F09C804FEA13650FF2401643
:1020F000765D4FEA134506FB05F7C7F1807706FBCF
:1021000007F74FEAD737A7FB03687642C8F5803850
:10211000A7FB06CE38BFA8F1010807FB08E64FF081
:10212000000EA6FB028CE6FB03CEDCF1000CCEF128
:10213000004E38BFAEF1010EA6FB0C584FF0000761
:102140004FF00005E6FB0E87A1FB08C6A0FB07CEFB
:1021500016EB0E0645F10005E1FB076515F1E04EB3
:102160007EBFA4F580345FEA46066D4116F1800714
:1021700045F100054FEA17274FEA066647EA05676B
:10218000A6F1DE46B6F1805F4FEA15251FD9384625
:1021900024F0010C05EBC471BCF1FE6F01EB0C11D6
:1021A00002D8F0BCBDE8008124425CBF01F5801E6E
:1021B0009EEAC47F02D4F0BCBDE80081244238D43A
:1021C000F0BCA1F1C041BDE8004100F0F3B94FEA15
:1021D000D22242EA43524FEAD323A7FB02864FEAB8
:1021E000D02040EA415007FB03661EEA0E0F4FEA7B
:1021F000D12105FB026658BFA6EB0056B6EB005690
:102200004FEA520E4EEAC37E18EB0E0E56EB530EFB
:10221000BDD518EB02085E417F1C55F10005B6E7FD
:102220004FF480154FF000074FF000064FF0000804
:10223000ADE7F0BC4FF0000001F1C04101F00041FA
:10224000BDE8008111EA0C1F0CEA131500D00CE068
:1022500013EA0C1F00F025804FF00000F0BC81EA6B
:10226000030101F00041BDE80081F0BCBDE8004180
:1022700081EA030100F09EB9F0BCBDE8004170B5F1
:1022800000F04AF9097EFC3E00F007B881EA03013C
:102290004FF0000001F00041704781EA030100F0B7
:1022A00089B9F0BCBDE800414FF0000021497047FA
:1022B000FFFDFBF9F7F5F4F2F0EEEDEBE9E8E6E40B
:1022C000E3E1E0DEDDDBDAD8D7D5D4D3D1D0CFCD92
:1022D000CCCBCAC8C7C6C5C4C2C1C0BFBEBDBCBBCB
:1022E000BAB9B8B7B6B5B4B3B2B1B0AFAEADACABC6
:1022F000AAA9A8A8A7A6A5A4A3A3A2A1A09F9F9EA0
:102300009D9C9C9B9A999998979796959594939351
:10231000929191908F8F8E8E8D8C8C8B8B8A8989E8
:10232000888887878685858484838382828181806B
:102330000000FF070000F87F4FEA41034FEA5353C4
:10234000A3F58063D3F11E03C8BFD3F1210C0CDDCC
:102350004FF0004242EAC12242EA505232FA03FCF4
:102360008CEAE17CACEBE1707047102BC4BF00201D
:10237000704703F5787CBCF1FF3F04D06FF000425A
:1023800082EA2100704770B500F0C6F849922480B7
:1023900000207047F2E710F0004248BF4042B0FA18
:1023A00080F310FA03F10AD0C3F11D0303F5806333
:1023B0004FEA415002EB035202EBD12170474FF03C
:1023C00000007047DFF848C170B51CEA111E1EBF3F
:1023D0001CEA13159EEA0C0F95EA0C0F00F06F80B3
:1023E00081EA030423EA4C134EEAD47E21EA4C111D
:1023F00041F4801143F48013AE44A1FB024CA0FBD6
:102400000365AEF17F7E361955EB0C05A1FB034C3D
:102410004CF10003A0FB021C16EB0C06654153F1C6
:102420000003094218BF46F0010613F4007F0BD1E8
:102430004FEA03314FEA0530340341EA155140EACF
:1024400016506FF003020AE04FEAC3214FEAC5209D
:10245000F40241EA555140EA56506FF0020202EB95
:102460002E4201EB025585EACE710AD05FEA440C98
:1024700018BF24F0004450F1000041F1000120EAAF
:10248000D47040F2FE7C624500D270BDA84214BFF9
:102490004FF080444FF04044002E08BF0024BEF1AE
:1024A000806FA8BFA1F1C041BDE8704080F282807A
:1024B0004FF0000001F1C04101F0004170479EEA79
:1024C0000C0F0CEA131518BF95EA0C0F06D04FF04D
:1024D000000081EA030E0EF0004170BD00F01CF810
:1024E0008900013E00F007B800F009B84FEA430C3C
:1024F0005FEA5C5C08D081EA030100F05BB84FEA58
:10250000410C5FEA5C5CF6D14FF000000149704776
:102510000000FF070000F87F0EF1020E2EF0030E00
:102520005EF8046B364205D4012A43EB030515F52A
:10253000001F12D8012841EB010C1CF5001F0CD81C
:102540000ED14FEAD17C15F5001F0CEB4C0C0CF1B1
:10255000020C08BF4CEBD37C04E04FF0080C01E008
:102560004FEAD37C0CEB4C0526FA05F606F007067D
:10257000B6F1040C06D20EEB860CBDE870404CF0B0
:10258000010C6047DFE80CF0090B02024FF000413C
:102590004FF00000A1F5002170BD1946104601283A
:1025A00051EB010418BFD4F5001484BF002001F0E2
:1025B000004170BD0808A0F500114FEA31017047D5
:1025C00010B591EA030F48BF83F000433FF5BCAC60
:1025D000841A71EB030C07D212198CF0004C43EBF8
:1025E0000C03001B61EB0C01DFF8A4E14FEA11546E
:1025F000A4EB135C1EEA430F18BF9EEA445F00F091
:10260000B08023EA6E03524221EA0451C3EB6E0309
:1026100038BF5B1EDCF1200E25D322FA0CFE10EB36
:102620000E0043FA0CFE41EB0E01CCF1200E03FA32
:102630000EFE10EB0E0051F10001CCF1200E29D45A
:1026400012FA0EF201EB0451BDE8104058BF70477A
:10265000401C1CBFB2F1004F704700280CBF491C42
:1026600020F00100704712EB020E43EB030218BF8B
:102670004FF0010E4EEA4202ACF1200CDCF11E0ECE
:1026800054D943FA0CFE10EB0E0051F1FF31CCF19E
:102690001E0ED5D50EF1010E12FA0EFE404141EB91
:1026A000010101EB445C5FEA5C5C10D910EBDE7069
:1026B00001EB045138BFBEF1004FBDE8104018BF18
:1026C000704700280CBF491C20F00100704730D231
:1026D0004FEAD42C11F5001124F400641BD0B1FA98
:1026E00081F20B3AA41AA41ED2F12003914030FAD1
:1026F00003F31943904001EBCC71002C01EB045122
:10270000BDE81040A8BF704701F1C0414FF0000084
:1027100001F000417047B0FA80F310FA03F100D1E4
:1027200010BDE41A173C4805C90AE4E701EB04515F
:1027300010BD491001EB0451BDE810404FEA3000D4
:1027400002E04FF0000170474A0008BF0042F8D095
:10275000B2F5001F28BF704701F000414FF00000A4
:1027600070479EEA445F07D011EA5E0FBDE8104053
:1027700004BF002100207047BDE8104070B5FFF78E
:10278000CBFE00BF40DFF63E83F0004110467047AD
:102790000000E0FF4FF04070E1EE100A70470000CB
:1027A0000000000000000000000000000000000029
:1027B0000000000000000000000000000000000019
:1027C0000000000000000000000000000000000009
:1027D0000000E003E003E003E003E003E003E003C4
:1027E000E003C003C003C001C001C001C001C001BB
:1027F000000000000000E003E003E0030000000030
:102800000000000000003C1E3C1E3C1E3C1E3C1E06
:102810003C1E3C1E00000000000000000000000004
:1028200000000000000000000000000000000000A8
:1028300000000000000000000000CE01CE03DE0317
:102840009E039C039C07FF3FFF7F3807380F780FDC
:10285000780F780EFFFFFFFFF01EF01CE01CE03C3D
:10286000E03DE03900000000000000000000FC0333
:10287000FE0FEE1FE01EE01EE01EE01EE01FE00F58
:10288000E007F003FC01FE01FE01FE01FE01FE0176
:10289000FE01FE3DFC3FF00FE001E0010000000002
:1028A0000000033E07F78FE78EE79EE3BCE3B8E73F
:1028B000F8E7F0F7E03FC001FF03FF07F307F30F6E
:1028C000F31EF33CF338F3787FF03FE000000000A4
:1028D000000000000000E007F80F780F781F781F55
:1028E000781F780FF00FE00F801FC37FC3FBE7F363
:1028F000F7F1F7F0FFF07FF03EF87F7CFF3FEF1F2E
:1029000000000000000000000000E003E003E0031E
:10291000E003E003C003C00100000000000000006D
:1029200000000000000000000000000000000000A7
:1029300000000000000000000000000000003F0058
:102940007C00F001E001C003C00780078007800F12
:10295000000F000F000F000F000F000F800F800707
:102960008007C007C003E001F0017C003F000F00BA
:102970000000007E001FC007C003E001F001F0006E
:10298000F000F8007800780078007800780078008F
:10299000F800F000F000F001E001C003C007001FE4
:1029A000007E00780000E003C003C001CE39FF3F85
:1029B0007F3F20037003F807780F3C1F38060000A4
:1029C0000000000000000000000000000000000007
:1029D00000000000000000000000000000000000F7
:1029E000000000000000C001C001C001C001C00122
:1029F000C001C001FFFFFFFFC001C001C001C00155
:102A0000C001C00100000000000000000000000044
:102A100000000000000000000000000000000000B6
:102A200000000000000000000000000000000000A6
:102A3000E003E003E003E003E001E001E001C001A6
:102A40008003000000000000000000000000000003
:102A50000000000000000000FE3FFE3F00000000FC
:102A60000000000000000000000000000000000066
:102A70000000000000000000000000000000000056
:102A80000000000000000000000000000000000046
:102A90000000000000000000E003E003E003E003AA
:102AA000000000000000000000000F000F001E00EA
:102AB0001E003C003C0078007800F000F000E001CF
:102AC000E001C003C00380078007000F000F001E55
:102AD000001E003C003C0078007800F00000F00789
:102AE000F80F7C1F3E3E1E3C1F7C1F7C0F780F782A
:102AF0000F780F780F780F780F781F7C1F7C1E3CA3
:102B00003E3E7C1FF80FF0070000000000000000B0
:102B10000000F000F007F03FF03FF001F001F0019D
:102B2000F001F001F001F001F001F001F001F0011D
:102B3000F001F001F001F001FF3FFF3F0000000055
:102B4000000000000000E00FF83F7C3C3C003E002D
:102B50003E003E003C003C007C00F800F001E00339
:102B6000C0078007000F001E003E003CFE3FFE3FF6
:102B700000000000000000000000F00FF81F7C1CA7
:102B80003E003E003E003C003C00F800F00FF80F15
:102B90007C003E001E001E001E001E003E007C1C2D
:102BA000F81FE01F00000000000000000000780097
:102BB000F800F800F801F803F807F807780F781E16
:102BC000781E783C78787878FFFFFFFF78007800EF
:102BD0007800780078007800000000000000000015
:102BE0000000FC1FFC1FFC1F001E001E001E001E1C
:102BF000001EE01FF81FFC007C003E003E001E008F
:102C00003E003E003C007C1CF81FE01F000000005E
:102C1000000000000000FC01FE078E0F001F001ED8
:102C2000003E003C003CF83DFC3F3E7F1F7E0F3CD9
:102C30000F3C0F3C0F3C0F3E1F1E3E1FFC0FF003CE
:102C400000000000000000000000FF3FFF3FFF3FCA
:102C50000F001E001E003C0038007800F000F0005D
:102C6000E001E001C003C0038007800F800F000F68
:102C7000001F001F00000000000000000000F80717
:102C8000FC0F3E1F1E1E1E3E1E3E1E1E3C1FF80F4A
:102C9000F007F80FFC1E3E3E1F3C1F7C0F7C0F7C94
:102CA0001F3C3E3FFC1FF00700000000000000003A
:102CB0000000F007F80F7C1E3E3C1E3C1F7C1F7C72
:102CC0001F7C1F7C1F3C3F3EFF1FEF071F001E00A5
:102CD0001E003E003C00F838F03FE01F00000000FE
:102CE00000000000000000000000000000000000E4
:102CF0000000E003E003E003E00300000000000048
:102D00000000000000000000E003E003E003E00337
:102D100000000000000000000000000000000000B3
:102D2000000000000000E003E003E003E003000017
:102D3000000000000000000000000000E003E003CD
:102D4000E003E003E001E001E001C00380030000D4
:102D50000000000000000000000003000F003F0022
:102D6000FC00F003C00F003F00FE003FC00FF00367
:102D7000FC003F000F000300000000000000000006
:102D80000000000000000000000000000000000043
:102D9000000000000000FFFFFFFF00000000000037
:102DA000FFFFFFFF00000000000000000000000027
:102DB0000000000000000000000000000000000013
:102DC000000000E000F8007E801FE007F8017E00B0
:102DD0001F007E00F801E007801F007E00F800E081
:102DE00000000000000000000000F01FFC3F3E3823
:102DF0001F381F381E001E003C007800F000E00164
:102E0000C003C003C007C007000000000000C007E7
:102E1000C007C00700000000000000000000F80329
:102E2000FE0F1E1F0F3E7F3CFF78EF79C773C7F37D
:102E30008FF38FF38FF39FF39FF3FF73FF7BF7798C
:102E4000003C1C1FFC0FF803000000000000000005
:102E50000000000000000000E003E003F007F007BE
:102E6000F007780F780F7C0E3C1E3C1E3E3CFE3F68
:102E7000FF3F1F780F780FF007F007F00000000009
:102E8000000000000000000000000000F83FFC3FD0
:102E90003E3C1E3C1E3C1E3C3E3C7C3CF03FF83F12
:102EA0007E3C1F3C1F3C0F3C0F3C1F3CFE3FF83F4D
:102EB0000000000000000000000000000000000012
:102EC000FF01FF07871F003E003C007C0078007870
:102ED000007800780078007C007C003E003F831F73
:102EE000FF07FF01000000000000000000000000DC
:102EF00000000000F07FFC7F7E781F781F780F783D
:102F00000F780F780F780F780F780F780F781F7879
:102F10001E787E78F87FE07F00000000000000004F
:102F20000000000000000000FF3FFF3F003E003EA9
:102F3000003E003E003E003EFE3FFE3F003E003EA3
:102F4000003E003E003E003EFF3FFF3F000000000D
:102F5000000000000000000000000000FF1FFF1F35
:102F6000001E001E001E001E001E001EFF1FFF1F71
:102F7000001E001E001E001E001E001E001E001E61
:102F80000000000000000000000000000000000041
:102F9000FE03FF0F871F003E007C007C007800F8D6
:102FA00000F87FF87FF80F780F7C0F7C0F3E8F1FA3
:102FB000FF0FFE0300000000000000000000000002
:102FC000000000001F7C1F7C1F7C1F7C1F7C1F7C5F
:102FD0001F7C1F7CFF7FFF7F1F7C1F7C1F7C1F7C53
:102FE0001F7C1F7C1F7C1F7C000000000000000075
:102FF0000000000000000000FF3FFF3FE003E0038F
:10300000E003E003E003E003E003E003E003E003A8
:10301000E003E003E003E003FF3FFF3F00000000A8
:10302000000000000000000000000000FC1FFC1F6A
:103030007C007C007C007C007C007C007C007C00B0
:103040007C007C007C0078007800F838F03FC03FBE
:103050000000000000000000000000000000000070
:103060001F3C1E3C3C3C783CF03CE03DE03FC03F18
:10307000803FC03FE03FF03DF03C783C7C3C3E3C34
:103080001F3C0F3C0000000000000000000000009A
:1030900000000000003E003E003E003E003E003EBC
:1030A000003E003E003E003E003E003E003E003E30
:1030B000003E003EFF3FFF3F000000000000000018
:1030C00000000000000000001FF81FFC1FFC3FFE76
:1030D0003FFE3FFE7FFF77FF77FFF7F7E7F7E7F366
:1030E000E7F3C7F307F007F007F007F00000000070
:1030F0000000000000000000000000000F7C0F7CBA
:103100000F7E0F7F0F7F8F7F8F7FCF7FEF7BEF79DA
:10311000FF79FF78FF787F783F783F781F781F78B6
:10312000000000000000000000000000000000009F
:10313000F007FC1F3E3E1F7C0F780F780FF80FF84A
:103140000FF80FF80FF80FF80F780F781F7C3E3E3E
:10315000FC1FF0070000000000000000000000005D
:1031600000000000FC3FFF3F1F3E0F3E0F3E0F3EA2
:103170000F3E1F3E3F3EFC3FF03F003E003E003E04
:10318000003E003E003E003E000000000000000047
:103190000000000000000000F007FC1F3E3E1F7C06
:1031A0000F780F780FF80FF80FF80FF80FF80FF8E7
:1031B0000F780F781F7C3E3EFC1FF8077C003F0015
:1031C0000F0003000000000000000000F03FFC3F83
:1031D0007E3C3E3C1E3C1E3C3E3C3C3CFC3CF03FAE
:1031E000E03FF03DF83C7C3C3E3C1E3C1F3C0F3C2D
:1031F00000000000000000000000000000000000CF
:10320000FC07FE1F0E3E003C003C003C003EC01F81
:10321000F80FFE037F001F000F000F001F203E3C31
:10322000FC3FF01F00000000000000000000000054
:1032300000000000FFFFFFFFE003E003E003E00306
:10324000E003E003E003E003E003E003E003E00366
:10325000E003E003E003E0030000000000000000E2
:1032600000000000000000000F7C0F7C0F7C0F7C32
:103270000F7C0F7C0F7C0F7C0F7C0F7C0F7C0F7CF6
:103280000F7C1E3C1E3C3E3EFC1FF0070000000071
:1032900000000000000000000000000007F007F040
:1032A00007F80F780F7C1E3C1E3C1E3E3C1E3C1F48
:1032B000781F780FF80FF007F007F007E003E0033E
:1032C00000000000000000000000000000000000FE
:1032D00003E003F003F007F0E7F3E7F3E7F3E77346
:1032E000F77BF77FFF7F7F7F7F7F7E7F7E3F3E3E46
:1032F0003E3E3E3E000000000000000000000000D6
:103300000000000007F80F7C1E3E3E3E3C1FF80FF9
:10331000F007E007E003E003F007F80F7C0F7C1EE6
:103320003E3C1F780F780FF0000000000000000006
:10333000000000000000000007F807780F7C1E3C2A
:103340001E3E3C1F780FF80FF007E003E003E00398
:10335000E003E003E003E003E003E003000000001B
:10336000000000000000000000000000FF7FFF7F61
:103370000F001F003E007C00F800F000E001E003B9
:10338000C007800F000F001E003E007CFF7FFF7F04
:1033900000000000000000000000FF078007800719
:1033A00080078007800780078007800780078007E5
:1033B00080078007800780078007800780078007D5
:1033C0008007800780078007FF07FF07000000785D
:1033D0000078003C003C001E001E000F000F80071C
:1033E0008007C003C003E001E001F000F0007800B6
:1033F00078003C003C001E001E000F000F0007007C
:103400000000F07FF000F000F000F000F000F000AD
:10341000F000F000F000F000F000F000F000F0002C
:10342000F000F000F000F000F000F000F000F0001C
:10343000F07FF07F0000C000C001C001E003E003A6
:10344000F007F0077807780F380F3C1E3C1E1E3C33
:103450001E3C0F380F7807780000000000000000C5
:10346000000000000000000000000000000000005C
:10347000000000000000000000000000000000004C
:10348000000000000000000000000000000000003C
:1034900000000000FFFFFFFF000000000000F00040
:1034A000000000000000000000000000000000001C
:1034B000000000000000000000000000000000000C
:1034C00000000000000000000000000000000000FC
:1034D0000000000000000000000000000000F80FE5
:1034E000FC3F7C3C3E003E003E00FE07FE1F3E3E91
:1034F0003E7C3E783E7C7E7CFF3FCF1F000000007C
:10350000000000000000003C003C003C003C003C8F
:10351000003CF83DFE3F3E3F1F3E0F3C0F3C0F3C42
:103520000F3C0F3C0F3C1F3C1E3C3E3FFC3FF03B22
:10353000000000000000000000000000000000008B
:10354000000000000000FE03FF0F871F003E003E4A
:10355000003C007C007C007C003C003E003E871F5D
:10356000FF0FFE03000000000000000000001F002D
:103570001F001F001F001F001F00FF07FF1F3F3E0F
:103580001F3C1F7C1F7C1F7C1F781F781F7C1F7CAB
:103590003F3C7F3EFF1FDF0F0000000000000000E7
:1035A0000000000000000000000000000000F80320
:1035B000FC0F3E1F1E3E1F3C1F7CFF7FFF7F007CD9
:1035C000007C003C003E071FFF0FFE0300000000D0
:1035D000000000000000FF01E103C003C007C007B6
:1035E000C007FF7FFF7FC007C007C007C007C00735
:1035F000C007C007C007C007C007C007C007C00793
:1036000000000000000000000000000000000000BA
:10361000000000000000EF07FF1F7F3E1F3C1F7CE3
:103620001F7C1F781F781F781F7C1F7C3F3C7F3ECC
:10363000FF1FDF0F1E001E001E007C38F83F003CFD
:10364000003C003C003C003C003CFC3DFE3F9E3FFB
:103650001F3F1F3E1F3C1F3C1F3C1F3C1F3C1F3C8D
:103660001F3C1F3C1F3C1F3C0000000000000000EE
:103670000000F001F0010000000000000000E07F09
:10368000E07FE001E001E001E001E001E001E001B4
:10369000E001E001E001E001E001E00100000000E4
:1036A000000000000000F800F8000000000000002A
:1036B0000000F83FF83FF800F800F800F800F800C4
:1036C000F800F800F800F800F800F800F800F8003A
:1036D000F800F800F000F071E07F003C003C003C96
:1036E000003C003C003C1F3C3E3C7C3CF83CF03D38
:1036F000E03DC03FC03FE03FF03DF83C7C3C3E3CFD
:103700001F3C1F3C00000000000000000000F07F94
:10371000F001F001F001F001F001F001F001F00121
:10372000F001F001F001F001F001F001F001F00111
:10373000F001F001F001F0010000000000000000C5
:1037400000000000000000000000000000009EF7E4
:10375000FFFFFFFFFFFFE7FBE7F9C7F1C7F1C7F185
:10376000C7F1C7F1C7F1C7F1C7F1C7F10000000009
:103770000000000000000000000000000000000049
:103780000000FC3DFE3F9E3F1F3F1F3E1F3C1F3C75
:103790001F3C1F3C1F3C1F3C1F3C1F3C1F3C1F3C51
:1037A0000000000000000000000000000000000019
:1037B000000000000000F007FC1F3E3E1F3C1F7C85
:1037C0000F780F780F780F780F781F7C1F3C3E3EE4
:1037D000FC1FF007000000000000000000000000D7
:1037E00000000000000000000000F83DFE3F3E3FEA
:1037F0001F3E0F3C0F3C0F3C0F3C0F3C0F3C1F3C4F
:103800001E3E3E3FFC3FF83F003C003C003C003C7D
:10381000003C000000000000000000000000EE0777
:10382000FE1F7E3E1E3C1E7C1E781E781E781E7873
:103830001E781E7C3E7C7E3EFE1FDE0F1E001E009C
:103840001E001E001E00000000000000000000001E
:1038500000007F1FFF1FE71FC71F871F001F001FDC
:10386000001F001F001F001F001F001F001F001F60
:103870000000000000000000000000000000000048
:10388000000000000000FC07FE1F0E1E003E003E70
:10389000003FE01FFC07FE003E001E001E003E3CF5
:1038A000FC3FF01F000000000000000000000000CE
:1038B00000000000800780078007FF7FFF7F8007F0
:1038C00080078007800780078007800780078007C0
:1038D0008007C007FF03FF01000000000000000098
:1038E00000000000000000000000000000001E3C7E
:1038F0001E3C1E3C1E3C1E3C1E3C1E3C1E3C1E3CF8
:103900001E3C3E3C7E3CFE3EFE1FDE0F00000000E3
:1039100000000000000000000000000000000000A7
:10392000000007F00F780F781E3C1E3C1E3E3C1E28
:103930003C1E780F780FF00FF007F007E003E0036C
:103940000000000000000000000000000000000077
:1039500000000000000003F0E3F1E3F3E7F3F7F306
:10396000F7F3F77F777F7F7F7F7F7F7F3E3E3E3E0F
:103970003E3E3E3E0000000000000000000000004F
:10398000000000000000000000000F7C1E3E3C3ED6
:103990003C1FF80FF007F007E003F007F807F80FF7
:1039A0007C1E3E3E1F3C1F7800000000000000000F
:1039B000000000000000000000000000000007F808
:1039C0000F780F7C1E3C1E3C3C1E3C1E3C1F780F9B
:1039D000F80FF007F007E003E003C003C003C003E3
:1039E0008007800F007F0000000000000000000042
:1039F0000000FF3FFF3F1F003E007C00F800F00189
:103A0000E003C007800F001F001E003CFF7FFF7F08
:103A100000000000000000000000FE01E003C00301
:103A2000C003C003C003E001E001E001C001C00326
:103A3000803F803FC003C001E001E001E001C0031E
:103A4000C003C003C003E003FE017E000000C0010C
:103A5000C001C001C001C001C001C001C001C0015E
:103A6000C001C001C001C001C001C001C001C0014E
:103A7000C001C001C001C001C001C001C001C0013E
:103A80000000C03FE003E001E001E001E001C0010F
:103A9000C003C003C001E001FE00FE00E001C00160
:103AA000C003C003C001E001E001E001E001E00368
:103AB000C03F003F000000000000000000000000C8
:103AC000000000000000000000000000073FC77F6A
:103AD000E773FFF17EF0000000000000000000002E
:103AE00000000000000000000000000000000000D6
:103AF000000001020304060708090000000001029B
:103B000003040000243B0008000000202400000003
:103B1000D0010008483B000824000020FC0A0000F7
:103B2000EC0100080000000000000000101A000076
:103B30009E270008000000000100000010000000A7
:083B4000000000000024F40065
:040000050800019559
:00000001FF
